:100000000A128A11FC2F00308A000408840A820731
:10001000003470347234653465347434683469344F
:020020000034AA
:100EA600F700831203138910770888000A128A1143
:100EB6006B270A128A110800F7008312031389149C
:100EC600770888000A128A116B270A128A1108000D
:100ED6008312031309140A30F0000030F1000A12DD
:100EE6008A11CF270A128A118312031309100A30B6
:100EF600F0000030F1000A128A11CF270A128A1177
:100F06000800F900962F790884000A128A11032036
:100F16000A128A110A128A115F270A128A110130EF
:100F2600F8007808F907790884000A128A11032064
:100F36000A128A11003A031DA12FA22F862F08003C
:100F4600831203138801831603138801831603177C
:100F5600880189018312031389018316031389010A
:100F660038300A128A1153270A128A110E300A12D1
:100F76008A1153270A128A1180300A128A115327BE
:100F86000A128A1101300A128A1184270A128A115A
:100F9600B32F0A128A110028F301F401ED2FF5018F
:100FA600F6010130F5070318F60A0030F607760851
:100FB600803AFF0083307F02031DE32FE83075027D
:100FC600031CE62FE72FD42F0130F3070318F40A8A
:100FD6000030F4077408803AF2007108803A720211
:100FE600031DF72F70087302031CFA2FFB2FD22F55
:0A0FF600080083010A128A11A32FDC
:02400E00E42CA0
:00000001FF
